{
  "_format": "hh-sol-artifact-1",
  "contractName": "Djob",
  "sourceName": "contracts/Djob.sol",
  "abi": [
    {
      "inputs": [
        {
          "internalType": "uint256",
          "name": "jid",
          "type": "uint256"
        }
      ],
      "name": "Apply",
      "outputs": [],
      "stateMutability": "nonpayable",
      "type": "function"
    },
    {
      "inputs": [
        {
          "internalType": "uint256",
          "name": "",
          "type": "uint256"
        }
      ],
      "name": "Emps",
      "outputs": [
        {
          "internalType": "address",
          "name": "employee",
          "type": "address"
        },
        {
          "internalType": "string",
          "name": "name",
          "type": "string"
        },
        {
          "internalType": "uint256",
          "name": "age",
          "type": "uint256"
        },
        {
          "internalType": "string",
          "name": "role",
          "type": "string"
        },
        {
          "internalType": "uint256",
          "name": "yearsofexperiance",
          "type": "uint256"
        },
        {
          "internalType": "string",
          "name": "skills",
          "type": "string"
        }
      ],
      "stateMutability": "view",
      "type": "function"
    },
    {
      "inputs": [
        {
          "internalType": "uint256",
          "name": "jid",
          "type": "uint256"
        },
        {
          "internalType": "uint256",
          "name": "eid",
          "type": "uint256"
        }
      ],
      "name": "Hire",
      "outputs": [],
      "stateMutability": "nonpayable",
      "type": "function"
    },
    {
      "inputs": [
        {
          "internalType": "uint256",
          "name": "",
          "type": "uint256"
        }
      ],
      "name": "Jobs",
      "outputs": [
        {
          "internalType": "address",
          "name": "employer",
          "type": "address"
        },
        {
          "internalType": "string",
          "name": "jname",
          "type": "string"
        },
        {
          "internalType": "string",
          "name": "jobDesc",
          "type": "string"
        },
        {
          "internalType": "uint256",
          "name": "budget",
          "type": "uint256"
        },
        {
          "internalType": "string",
          "name": "jlocation",
          "type": "string"
        },
        {
          "internalType": "string",
          "name": "jmode",
          "type": "string"
        }
      ],
      "stateMutability": "view",
      "type": "function"
    },
    {
      "inputs": [
        {
          "internalType": "address",
          "name": "",
          "type": "address"
        },
        {
          "internalType": "address",
          "name": "",
          "type": "address"
        }
      ],
      "name": "applied",
      "outputs": [
        {
          "internalType": "uint256",
          "name": "",
          "type": "uint256"
        }
      ],
      "stateMutability": "view",
      "type": "function"
    },
    {
      "inputs": [
        {
          "internalType": "string",
          "name": "name",
          "type": "string"
        },
        {
          "internalType": "uint256",
          "name": "age",
          "type": "uint256"
        },
        {
          "internalType": "string",
          "name": "role",
          "type": "string"
        },
        {
          "internalType": "uint256",
          "name": "exp",
          "type": "uint256"
        },
        {
          "internalType": "string",
          "name": "skill",
          "type": "string"
        }
      ],
      "name": "createAcc",
      "outputs": [],
      "stateMutability": "nonpayable",
      "type": "function"
    },
    {
      "inputs": [
        {
          "internalType": "address",
          "name": "",
          "type": "address"
        }
      ],
      "name": "empdetails",
      "outputs": [
        {
          "internalType": "address",
          "name": "employee",
          "type": "address"
        },
        {
          "internalType": "string",
          "name": "name",
          "type": "string"
        },
        {
          "internalType": "uint256",
          "name": "age",
          "type": "uint256"
        },
        {
          "internalType": "string",
          "name": "role",
          "type": "string"
        },
        {
          "internalType": "uint256",
          "name": "yearsofexperiance",
          "type": "uint256"
        },
        {
          "internalType": "string",
          "name": "skills",
          "type": "string"
        }
      ],
      "stateMutability": "view",
      "type": "function"
    },
    {
      "inputs": [
        {
          "internalType": "uint256",
          "name": "",
          "type": "uint256"
        }
      ],
      "name": "empssss",
      "outputs": [
        {
          "internalType": "address payable",
          "name": "",
          "type": "address"
        }
      ],
      "stateMutability": "view",
      "type": "function"
    },
    {
      "inputs": [],
      "name": "getJobsAsArrays",
      "outputs": [
        {
          "internalType": "address[]",
          "name": "",
          "type": "address[]"
        },
        {
          "internalType": "string[]",
          "name": "",
          "type": "string[]"
        },
        {
          "internalType": "string[]",
          "name": "",
          "type": "string[]"
        },
        {
          "internalType": "uint256[]",
          "name": "",
          "type": "uint256[]"
        },
        {
          "internalType": "string[]",
          "name": "",
          "type": "string[]"
        },
        {
          "internalType": "string[]",
          "name": "",
          "type": "string[]"
        }
      ],
      "stateMutability": "view",
      "type": "function"
    },
    {
      "inputs": [],
      "name": "getbal",
      "outputs": [
        {
          "internalType": "uint256",
          "name": "",
          "type": "uint256"
        }
      ],
      "stateMutability": "view",
      "type": "function"
    },
    {
      "inputs": [],
      "name": "getx",
      "outputs": [
        {
          "internalType": "uint256",
          "name": "",
          "type": "uint256"
        }
      ],
      "stateMutability": "view",
      "type": "function"
    },
    {
      "inputs": [
        {
          "internalType": "address",
          "name": "",
          "type": "address"
        },
        {
          "internalType": "uint256",
          "name": "",
          "type": "uint256"
        }
      ],
      "name": "hire",
      "outputs": [
        {
          "internalType": "uint256",
          "name": "",
          "type": "uint256"
        }
      ],
      "stateMutability": "view",
      "type": "function"
    },
    {
      "inputs": [
        {
          "internalType": "address",
          "name": "",
          "type": "address"
        },
        {
          "internalType": "uint256",
          "name": "",
          "type": "uint256"
        }
      ],
      "name": "jobdetails",
      "outputs": [
        {
          "internalType": "address",
          "name": "employer",
          "type": "address"
        },
        {
          "internalType": "string",
          "name": "jname",
          "type": "string"
        },
        {
          "internalType": "string",
          "name": "jobDesc",
          "type": "string"
        },
        {
          "internalType": "uint256",
          "name": "budget",
          "type": "uint256"
        },
        {
          "internalType": "string",
          "name": "jlocation",
          "type": "string"
        },
        {
          "internalType": "string",
          "name": "jmode",
          "type": "string"
        }
      ],
      "stateMutability": "view",
      "type": "function"
    },
    {
      "inputs": [
        {
          "internalType": "uint256",
          "name": "eid",
          "type": "uint256"
        }
      ],
      "name": "pay",
      "outputs": [],
      "stateMutability": "payable",
      "type": "function"
    },
    {
      "inputs": [
        {
          "internalType": "string",
          "name": "name",
          "type": "string"
        },
        {
          "internalType": "string",
          "name": "jdesc",
          "type": "string"
        },
        {
          "internalType": "uint256",
          "name": "budjet",
          "type": "uint256"
        },
        {
          "internalType": "string",
          "name": "jloc",
          "type": "string"
        },
        {
          "internalType": "string",
          "name": "jmode",
          "type": "string"
        }
      ],
      "name": "postjob",
      "outputs": [],
      "stateMutability": "nonpayable",
      "type": "function"
    },
    {
      "inputs": [],
      "name": "x",
      "outputs": [
        {
          "internalType": "uint256",
          "name": "",
          "type": "uint256"
        }
      ],
      "stateMutability": "view",
      "type": "function"
    }
  ],
  "bytecode": "0x6080604052600a60095534801561001557600080fd5b50612804806100256000396000f3fe6080604052600436106100f35760003560e01c8063818453931161008a578063c290d69111610059578063c290d69114610367578063e276c79914610383578063f23ba8e6146103ae578063ff3f5666146103eb576100f3565b80638184539314610291578063b0fa934a146102d3578063b539018314610315578063baca71121461033e576100f3565b80632fc96119116100c65780632fc96119146101cd5780634ca1ac48146101f65780635dc9c7a714610238578063646a3cb214610261576100f3565b80630c55699c146100f85780631b3f4e07146101235780631df39ba41461014e5780632cc772f01461018b575b600080fd5b34801561010457600080fd5b5061010d610428565b60405161011a9190611aa7565b60405180910390f35b34801561012f57600080fd5b5061013861042e565b6040516101459190611aa7565b60405180910390f35b34801561015a57600080fd5b5061017560048036038101906101709190611b02565b610436565b6040516101829190611b70565b60405180910390f35b34801561019757600080fd5b506101b260048036038101906101ad9190611b02565b610475565b6040516101c496959493929190611c3c565b60405180910390f35b3480156101d957600080fd5b506101f460048036038101906101ef9190611b02565b6106f1565b005b34801561020257600080fd5b5061021d60048036038101906102189190611ce5565b6107b7565b60405161022f96959493929190611d12565b60405180910390f35b34801561024457600080fd5b5061025f600480360381019061025a9190611d88565b6109ab565b005b34801561026d57600080fd5b50610276610a04565b60405161028896959493929190612050565b60405180910390f35b34801561029d57600080fd5b506102b860048036038101906102b391906120db565b610fe9565b6040516102ca96959493929190611c3c565b60405180910390f35b3480156102df57600080fd5b506102fa60048036038101906102f59190611b02565b611272565b60405161030c96959493929190611d12565b60405180910390f35b34801561032157600080fd5b5061033c60048036038101906103379190612250565b611466565b005b34801561034a57600080fd5b506103656004803603810190610360919061231f565b611702565b005b610381600480360381019061037c9190611b02565b611966565b005b34801561038f57600080fd5b506103986119fa565b6040516103a59190611aa7565b60405180910390f35b3480156103ba57600080fd5b506103d560048036038101906103d091906120db565b611a04565b6040516103e29190611aa7565b60405180910390f35b3480156103f757600080fd5b50610412600480360381019061040d919061240a565b611a29565b60405161041f9190611aa7565b60405180910390f35b60095481565b600047905090565b6000818154811061044657600080fd5b906000526020600020016000915054906101000a900473ffffffffffffffffffffffffffffffffffffffff1681565b60016020528060005260406000206000915090508060000160009054906101000a900473ffffffffffffffffffffffffffffffffffffffff16908060010180546104be90612479565b80601f01602080910402602001604051908101604052809291908181526020018280546104ea90612479565b80156105375780601f1061050c57610100808354040283529160200191610537565b820191906000526020600020905b81548152906001019060200180831161051a57829003601f168201915b50505050509080600201805461054c90612479565b80601f016020809104026020016040519081016040528092919081815260200182805461057890612479565b80156105c55780601f1061059a576101008083540402835291602001916105c5565b820191906000526020600020905b8154815290600101906020018083116105a857829003601f168201915b5050505050908060030154908060040180546105e090612479565b80601f016020809104026020016040519081016040528092919081815260200182805461060c90612479565b80156106595780601f1061062e57610100808354040283529160200191610659565b820191906000526020600020905b81548152906001019060200180831161063c57829003601f168201915b50505050509080600501805461066e90612479565b80601f016020809104026020016040519081016040528092919081815260200182805461069a90612479565b80156106e75780601f106106bc576101008083540402835291602001916106e7565b820191906000526020600020905b8154815290600101906020018083116106ca57829003601f168201915b5050505050905086565b600060016000838152602001908152602001600020905060008160000160009054906101000a900473ffffffffffffffffffffffffffffffffffffffff16905082600360003373ffffffffffffffffffffffffffffffffffffffff1673ffffffffffffffffffffffffffffffffffffffff16815260200190815260200160002060008373ffffffffffffffffffffffffffffffffffffffff1673ffffffffffffffffffffffffffffffffffffffff16815260200190815260200160002081905550505050565b60086020528060005260406000206000915090508060000160009054906101000a900473ffffffffffffffffffffffffffffffffffffffff169080600101805461080090612479565b80601f016020809104026020016040519081016040528092919081815260200182805461082c90612479565b80156108795780601f1061084e57610100808354040283529160200191610879565b820191906000526020600020905b81548152906001019060200180831161085c57829003601f168201915b50505050509080600201549080600301805461089490612479565b80601f01602080910402602001604051908101604052809291908181526020018280546108c090612479565b801561090d5780601f106108e25761010080835404028352916020019161090d565b820191906000526020600020905b8154815290600101906020018083116108f057829003601f168201915b50505050509080600401549080600501805461092890612479565b80601f016020809104026020016040519081016040528092919081815260200182805461095490612479565b80156109a15780601f10610976576101008083540402835291602001916109a1565b820191906000526020600020905b81548152906001019060200180831161098457829003601f168201915b5050505050905086565b80600460003373ffffffffffffffffffffffffffffffffffffffff1673ffffffffffffffffffffffffffffffffffffffff1681526020019081526020016000206000848152602001908152602001600020819055505050565b6060806060806060806000610a17611a4e565b905060008167ffffffffffffffff811115610a3557610a34612125565b5b604051908082528060200260200182016040528015610a635781602001602082028036833780820191505090505b50905060008267ffffffffffffffff811115610a8257610a81612125565b5b604051908082528060200260200182016040528015610ab557816020015b6060815260200190600190039081610aa05790505b50905060008367ffffffffffffffff811115610ad457610ad3612125565b5b604051908082528060200260200182016040528015610b0757816020015b6060815260200190600190039081610af25790505b50905060008467ffffffffffffffff811115610b2657610b25612125565b5b604051908082528060200260200182016040528015610b545781602001602082028036833780820191505090505b50905060008567ffffffffffffffff811115610b7357610b72612125565b5b604051908082528060200260200182016040528015610ba657816020015b6060815260200190600190039081610b915790505b50905060008667ffffffffffffffff811115610bc557610bc4612125565b5b604051908082528060200260200182016040528015610bf857816020015b6060815260200190600190039081610be35790505b50905060005b87811015610fc7576001600082815260200190815260200160002060000160009054906101000a900473ffffffffffffffffffffffffffffffffffffffff16878281518110610c5057610c4f6124aa565b5b602002602001019073ffffffffffffffffffffffffffffffffffffffff16908173ffffffffffffffffffffffffffffffffffffffff1681525050600160008281526020019081526020016000206001018054610cab90612479565b80601f0160208091040260200160405190810160405280929190818152602001828054610cd790612479565b8015610d245780601f10610cf957610100808354040283529160200191610d24565b820191906000526020600020905b815481529060010190602001808311610d0757829003601f168201915b5050505050868281518110610d3c57610d3b6124aa565b5b6020026020010181905250600160008281526020019081526020016000206002018054610d6890612479565b80601f0160208091040260200160405190810160405280929190818152602001828054610d9490612479565b8015610de15780601f10610db657610100808354040283529160200191610de1565b820191906000526020600020905b815481529060010190602001808311610dc457829003601f168201915b5050505050858281518110610df957610df86124aa565b5b60200260200101819052506001600082815260200190815260200160002060030154848281518110610e2e57610e2d6124aa565b5b602002602001018181525050600160008281526020019081526020016000206004018054610e5b90612479565b80601f0160208091040260200160405190810160405280929190818152602001828054610e8790612479565b8015610ed45780601f10610ea957610100808354040283529160200191610ed4565b820191906000526020600020905b815481529060010190602001808311610eb757829003601f168201915b5050505050838281518110610eec57610eeb6124aa565b5b6020026020010181905250600160008281526020019081526020016000206005018054610f1890612479565b80601f0160208091040260200160405190810160405280929190818152602001828054610f4490612479565b8015610f915780601f10610f6657610100808354040283529160200191610f91565b820191906000526020600020905b815481529060010190602001808311610f7457829003601f168201915b5050505050828281518110610fa957610fa86124aa565b5b60200260200101819052508080610fbf90612508565b915050610bfe565b508585858585859c509c509c509c509c509c5050505050505050909192939495565b6007602052816000526040600020602052806000526040600020600091509150508060000160009054906101000a900473ffffffffffffffffffffffffffffffffffffffff169080600101805461103f90612479565b80601f016020809104026020016040519081016040528092919081815260200182805461106b90612479565b80156110b85780601f1061108d576101008083540402835291602001916110b8565b820191906000526020600020905b81548152906001019060200180831161109b57829003601f168201915b5050505050908060020180546110cd90612479565b80601f01602080910402602001604051908101604052809291908181526020018280546110f990612479565b80156111465780601f1061111b57610100808354040283529160200191611146565b820191906000526020600020905b81548152906001019060200180831161112957829003601f168201915b50505050509080600301549080600401805461116190612479565b80601f016020809104026020016040519081016040528092919081815260200182805461118d90612479565b80156111da5780601f106111af576101008083540402835291602001916111da565b820191906000526020600020905b8154815290600101906020018083116111bd57829003601f168201915b5050505050908060050180546111ef90612479565b80601f016020809104026020016040519081016040528092919081815260200182805461121b90612479565b80156112685780601f1061123d57610100808354040283529160200191611268565b820191906000526020600020905b81548152906001019060200180831161124b57829003601f168201915b5050505050905086565b60026020528060005260406000206000915090508060000160009054906101000a900473ffffffffffffffffffffffffffffffffffffffff16908060010180546112bb90612479565b80601f01602080910402602001604051908101604052809291908181526020018280546112e790612479565b80156113345780601f1061130957610100808354040283529160200191611334565b820191906000526020600020905b81548152906001019060200180831161131757829003601f168201915b50505050509080600201549080600301805461134f90612479565b80601f016020809104026020016040519081016040528092919081815260200182805461137b90612479565b80156113c85780601f1061139d576101008083540402835291602001916113c8565b820191906000526020600020905b8154815290600101906020018083116113ab57829003601f168201915b5050505050908060040154908060050180546113e390612479565b80601f016020809104026020016040519081016040528092919081815260200182805461140f90612479565b801561145c5780601f106114315761010080835404028352916020019161145c565b820191906000526020600020905b81548152906001019060200180831161143f57829003601f168201915b5050505050905086565b6040518060c001604052803373ffffffffffffffffffffffffffffffffffffffff1681526020018681526020018581526020018481526020018381526020018281525060026000600654815260200190815260200160002060008201518160000160006101000a81548173ffffffffffffffffffffffffffffffffffffffff021916908373ffffffffffffffffffffffffffffffffffffffff160217905550602082015181600101908161151a91906126fc565b5060408201518160020155606082015181600301908161153a91906126fc565b506080820151816004015560a082015181600501908161155a91906126fc565b509050506006600081548092919061157190612508565b91905055506000339080600181540180825580915050600190039060005260206000200160009091909190916101000a81548173ffffffffffffffffffffffffffffffffffffffff021916908373ffffffffffffffffffffffffffffffffffffffff1602179055506040518060c001604052803373ffffffffffffffffffffffffffffffffffffffff16815260200186815260200185815260200184815260200183815260200182815250600860003373ffffffffffffffffffffffffffffffffffffffff1673ffffffffffffffffffffffffffffffffffffffff16815260200190815260200160002060008201518160000160006101000a81548173ffffffffffffffffffffffffffffffffffffffff021916908373ffffffffffffffffffffffffffffffffffffffff16021790555060208201518160010190816116b791906126fc565b506040820151816002015560608201518160030190816116d791906126fc565b506080820151816004015560a08201518160050190816116f791906126fc565b509050505050505050565b6040518060c001604052803373ffffffffffffffffffffffffffffffffffffffff1681526020018681526020018581526020018481526020018381526020018281525060016000600554815260200190815260200160002060008201518160000160006101000a81548173ffffffffffffffffffffffffffffffffffffffff021916908373ffffffffffffffffffffffffffffffffffffffff16021790555060208201518160010190816117b691906126fc565b5060408201518160020190816117cc91906126fc565b506060820151816003015560808201518160040190816117ec91906126fc565b5060a082015181600501908161180291906126fc565b509050506040518060c001604052803373ffffffffffffffffffffffffffffffffffffffff16815260200186815260200185815260200184815260200183815260200182815250600760003373ffffffffffffffffffffffffffffffffffffffff1673ffffffffffffffffffffffffffffffffffffffff1681526020019081526020016000206000600554815260200190815260200160002060008201518160000160006101000a81548173ffffffffffffffffffffffffffffffffffffffff021916908373ffffffffffffffffffffffffffffffffffffffff16021790555060208201518160010190816118f791906126fc565b50604082015181600201908161190d91906126fc565b5060608201518160030155608082015181600401908161192d91906126fc565b5060a082015181600501908161194391906126fc565b509050506005600081548092919061195a90612508565b91905055505050505050565b600080828154811061197b5761197a6124aa565b5b9060005260206000200160009054906101000a900473ffffffffffffffffffffffffffffffffffffffff1690508073ffffffffffffffffffffffffffffffffffffffff166108fc6119ca61042e565b9081150290604051600060405180830381858888f193505050501580156119f5573d6000803e3d6000fd5b505050565b6000600954905090565b6004602052816000526040600020602052806000526040600020600091509150505481565b6003602052816000526040600020602052806000526040600020600091509150505481565b600080600090505b6000600160008381526020019081526020016000206003015414611a87578080611a7f90612508565b915050611a56565b8091505090565b6000819050919050565b611aa181611a8e565b82525050565b6000602082019050611abc6000830184611a98565b92915050565b6000604051905090565b600080fd5b600080fd5b611adf81611a8e565b8114611aea57600080fd5b50565b600081359050611afc81611ad6565b92915050565b600060208284031215611b1857611b17611acc565b5b6000611b2684828501611aed565b91505092915050565b600073ffffffffffffffffffffffffffffffffffffffff82169050919050565b6000611b5a82611b2f565b9050919050565b611b6a81611b4f565b82525050565b6000602082019050611b856000830184611b61565b92915050565b6000611b9682611b2f565b9050919050565b611ba681611b8b565b82525050565b600081519050919050565b600082825260208201905092915050565b60005b83811015611be6578082015181840152602081019050611bcb565b60008484015250505050565b6000601f19601f8301169050919050565b6000611c0e82611bac565b611c188185611bb7565b9350611c28818560208601611bc8565b611c3181611bf2565b840191505092915050565b600060c082019050611c516000830189611b9d565b8181036020830152611c638188611c03565b90508181036040830152611c778187611c03565b9050611c866060830186611a98565b8181036080830152611c988185611c03565b905081810360a0830152611cac8184611c03565b9050979650505050505050565b611cc281611b8b565b8114611ccd57600080fd5b50565b600081359050611cdf81611cb9565b92915050565b600060208284031215611cfb57611cfa611acc565b5b6000611d0984828501611cd0565b91505092915050565b600060c082019050611d276000830189611b9d565b8181036020830152611d398188611c03565b9050611d486040830187611a98565b8181036060830152611d5a8186611c03565b9050611d696080830185611a98565b81810360a0830152611d7b8184611c03565b9050979650505050505050565b60008060408385031215611d9f57611d9e611acc565b5b6000611dad85828601611aed565b9250506020611dbe85828601611aed565b9150509250929050565b600081519050919050565b600082825260208201905092915050565b6000819050602082019050919050565b611dfd81611b8b565b82525050565b6000611e0f8383611df4565b60208301905092915050565b6000602082019050919050565b6000611e3382611dc8565b611e3d8185611dd3565b9350611e4883611de4565b8060005b83811015611e79578151611e608882611e03565b9750611e6b83611e1b565b925050600181019050611e4c565b5085935050505092915050565b600081519050919050565b600082825260208201905092915050565b6000819050602082019050919050565b600082825260208201905092915050565b6000611ece82611bac565b611ed88185611eb2565b9350611ee8818560208601611bc8565b611ef181611bf2565b840191505092915050565b6000611f088383611ec3565b905092915050565b6000602082019050919050565b6000611f2882611e86565b611f328185611e91565b935083602082028501611f4485611ea2565b8060005b85811015611f805784840389528151611f618582611efc565b9450611f6c83611f10565b925060208a01995050600181019050611f48565b50829750879550505050505092915050565b600081519050919050565b600082825260208201905092915050565b6000819050602082019050919050565b611fc781611a8e565b82525050565b6000611fd98383611fbe565b60208301905092915050565b6000602082019050919050565b6000611ffd82611f92565b6120078185611f9d565b935061201283611fae565b8060005b8381101561204357815161202a8882611fcd565b975061203583611fe5565b925050600181019050612016565b5085935050505092915050565b600060c082019050818103600083015261206a8189611e28565b9050818103602083015261207e8188611f1d565b905081810360408301526120928187611f1d565b905081810360608301526120a68186611ff2565b905081810360808301526120ba8185611f1d565b905081810360a08301526120ce8184611f1d565b9050979650505050505050565b600080604083850312156120f2576120f1611acc565b5b600061210085828601611cd0565b925050602061211185828601611aed565b9150509250929050565b600080fd5b600080fd5b7f4e487b7100000000000000000000000000000000000000000000000000000000600052604160045260246000fd5b61215d82611bf2565b810181811067ffffffffffffffff8211171561217c5761217b612125565b5b80604052505050565b600061218f611ac2565b905061219b8282612154565b919050565b600067ffffffffffffffff8211156121bb576121ba612125565b5b6121c482611bf2565b9050602081019050919050565b82818337600083830152505050565b60006121f36121ee846121a0565b612185565b90508281526020810184848401111561220f5761220e612120565b5b61221a8482856121d1565b509392505050565b600082601f8301126122375761223661211b565b5b81356122478482602086016121e0565b91505092915050565b600080600080600060a0868803121561226c5761226b611acc565b5b600086013567ffffffffffffffff81111561228a57612289611ad1565b5b61229688828901612222565b95505060206122a788828901611aed565b945050604086013567ffffffffffffffff8111156122c8576122c7611ad1565b5b6122d488828901612222565b93505060606122e588828901611aed565b925050608086013567ffffffffffffffff81111561230657612305611ad1565b5b61231288828901612222565b9150509295509295909350565b600080600080600060a0868803121561233b5761233a611acc565b5b600086013567ffffffffffffffff81111561235957612358611ad1565b5b61236588828901612222565b955050602086013567ffffffffffffffff81111561238657612385611ad1565b5b61239288828901612222565b94505060406123a388828901611aed565b935050606086013567ffffffffffffffff8111156123c4576123c3611ad1565b5b6123d088828901612222565b925050608086013567ffffffffffffffff8111156123f1576123f0611ad1565b5b6123fd88828901612222565b9150509295509295909350565b6000806040838503121561242157612420611acc565b5b600061242f85828601611cd0565b925050602061244085828601611cd0565b9150509250929050565b7f4e487b7100000000000000000000000000000000000000000000000000000000600052602260045260246000fd5b6000600282049050600182168061249157607f821691505b6020821081036124a4576124a361244a565b5b50919050565b7f4e487b7100000000000000000000000000000000000000000000000000000000600052603260045260246000fd5b7f4e487b7100000000000000000000000000000000000000000000000000000000600052601160045260246000fd5b600061251382611a8e565b91507fffffffffffffffffffffffffffffffffffffffffffffffffffffffffffffffff8203612545576125446124d9565b5b600182019050919050565b60008190508160005260206000209050919050565b60006020601f8301049050919050565b600082821b905092915050565b6000600883026125b27fffffffffffffffffffffffffffffffffffffffffffffffffffffffffffffffff82612575565b6125bc8683612575565b95508019841693508086168417925050509392505050565b6000819050919050565b60006125f96125f46125ef84611a8e565b6125d4565b611a8e565b9050919050565b6000819050919050565b612613836125de565b61262761261f82612600565b848454612582565b825550505050565b600090565b61263c61262f565b61264781848461260a565b505050565b5b8181101561266b57612660600082612634565b60018101905061264d565b5050565b601f8211156126b05761268181612550565b61268a84612565565b81016020851015612699578190505b6126ad6126a585612565565b83018261264c565b50505b505050565b600082821c905092915050565b60006126d3600019846008026126b5565b1980831691505092915050565b60006126ec83836126c2565b9150826002028217905092915050565b61270582611bac565b67ffffffffffffffff81111561271e5761271d612125565b5b6127288254612479565b61273382828561266f565b600060209050601f8311600181146127665760008415612754578287015190505b61275e85826126e0565b8655506127c6565b601f19841661277486612550565b60005b8281101561279c57848901518255600182019150602085019450602081019050612777565b868310156127b957848901516127b5601f8916826126c2565b8355505b6001600288020188555050505b50505050505056fea2646970667358221220d78e03461657b5f8ec93af6a138342ea9ecf4ca7c6c826a1307e6234da3c326964736f6c63430008120033",
  "linkReferences": {},
  "deployedLinkReferences": {}
}